{
  "contractName": "DMVService",
  "abi": [
    {
      "inputs": [],
      "stateMutability": "nonpayable",
      "type": "constructor"
    },
    {
      "anonymous": false,
      "inputs": [
        {
          "indexed": false,
          "internalType": "address",
          "name": "originAddress",
          "type": "address"
        },
        {
          "indexed": false,
          "internalType": "string",
          "name": "data",
          "type": "string"
        }
      ],
      "name": "PostEvent",
      "type": "event"
    },
    {
      "inputs": [],
      "name": "data",
      "outputs": [
        {
          "internalType": "string",
          "name": "",
          "type": "string"
        }
      ],
      "stateMutability": "view",
      "type": "function",
      "constant": true
    },
    {
      "inputs": [],
      "name": "last_completed_migration",
      "outputs": [
        {
          "internalType": "uint256",
          "name": "",
          "type": "uint256"
        }
      ],
      "stateMutability": "view",
      "type": "function",
      "constant": true
    },
    {
      "inputs": [],
      "name": "owner",
      "outputs": [
        {
          "internalType": "address",
          "name": "",
          "type": "address"
        }
      ],
      "stateMutability": "view",
      "type": "function",
      "constant": true
    },
    {
      "inputs": [
        {
          "internalType": "address",
          "name": "_from",
          "type": "address"
        },
        {
          "internalType": "string",
          "name": "value",
          "type": "string"
        }
      ],
      "name": "postEvent",
      "outputs": [],
      "stateMutability": "nonpayable",
      "type": "function"
    }
  ],
  "bytecode": "0x6080604052604051806020016040528060008152506001908051906020019061002992919061003c565b5034801561003657600080fd5b50610140565b828054610048906100df565b90600052602060002090601f01602090048101928261006a57600085556100b1565b82601f1061008357805160ff19168380011785556100b1565b828001600101855582156100b1579182015b828111156100b0578251825591602001919060010190610095565b5b5090506100be91906100c2565b5090565b5b808211156100db5760008160009055506001016100c3565b5090565b600060028204905060018216806100f757607f821691505b6020821081141561010b5761010a610111565b5b50919050565b7f4e487b7100000000000000000000000000000000000000000000000000000000600052602260045260246000fd5b6106598061014f6000396000f3fe608060405234801561001057600080fd5b506004361061004c5760003560e01c8063445df0ac146100515780634a5d35e31461006f57806373d4a13a1461008b5780638da5cb5b146100a9575b600080fd5b6100596100c7565b604051610066919061041b565b60405180910390f35b610089600480360381019061008491906102fb565b6100cd565b005b610093610121565b6040516100a091906103f9565b60405180910390f35b6100b16101af565b6040516100be91906103ae565b60405180910390f35b60025481565b80600190805190602001906100e39291906101d3565b507f97f47e9171bfc9609285ce702ed001c426fd55c596d5b90c418b1bd81c762b1182826040516101159291906103c9565b60405180910390a15050565b6001805461012e90610526565b80601f016020809104026020016040519081016040528092919081815260200182805461015a90610526565b80156101a75780601f1061017c576101008083540402835291602001916101a7565b820191906000526020600020905b81548152906001019060200180831161018a57829003601f168201915b505050505081565b60008054906101000a900473ffffffffffffffffffffffffffffffffffffffff1681565b8280546101df90610526565b90600052602060002090601f0160209004810192826102015760008555610248565b82601f1061021a57805160ff1916838001178555610248565b82800160010185558215610248579182015b8281111561024757825182559160200191906001019061022c565b5b5090506102559190610259565b5090565b5b8082111561027257600081600090555060010161025a565b5090565b60006102896102848461045b565b610436565b9050828152602081018484840111156102a5576102a46105ec565b5b6102b08482856104e4565b509392505050565b6000813590506102c78161060c565b92915050565b600082601f8301126102e2576102e16105e7565b5b81356102f2848260208601610276565b91505092915050565b60008060408385031215610312576103116105f6565b5b6000610320858286016102b8565b925050602083013567ffffffffffffffff811115610341576103406105f1565b5b61034d858286016102cd565b9150509250929050565b610360816104a8565b82525050565b60006103718261048c565b61037b8185610497565b935061038b8185602086016104f3565b610394816105fb565b840191505092915050565b6103a8816104da565b82525050565b60006020820190506103c36000830184610357565b92915050565b60006040820190506103de6000830185610357565b81810360208301526103f08184610366565b90509392505050565b600060208201905081810360008301526104138184610366565b905092915050565b6000602082019050610430600083018461039f565b92915050565b6000610440610451565b905061044c8282610558565b919050565b6000604051905090565b600067ffffffffffffffff821115610476576104756105b8565b5b61047f826105fb565b9050602081019050919050565b600081519050919050565b600082825260208201905092915050565b60006104b3826104ba565b9050919050565b600073ffffffffffffffffffffffffffffffffffffffff82169050919050565b6000819050919050565b82818337600083830152505050565b60005b838110156105115780820151818401526020810190506104f6565b83811115610520576000848401525b50505050565b6000600282049050600182168061053e57607f821691505b6020821081141561055257610551610589565b5b50919050565b610561826105fb565b810181811067ffffffffffffffff821117156105805761057f6105b8565b5b80604052505050565b7f4e487b7100000000000000000000000000000000000000000000000000000000600052602260045260246000fd5b7f4e487b7100000000000000000000000000000000000000000000000000000000600052604160045260246000fd5b600080fd5b600080fd5b600080fd5b600080fd5b6000601f19601f8301169050919050565b610615816104a8565b811461062057600080fd5b5056fea26469706673582212201b6ccaf18f375ee2e42d6bca559dea667ff174926c8fa8b5233226c4537ce32d64736f6c63430008070033",
  "immutableReferences": {},
  "source": "pragma solidity >=0.6.0 <0.9.0;\r\n\r\ncontract DMVService {\r\n  address public owner;\r\n\r\n  // string action = \"\";\r\n  string public data = \"\";\r\n\r\n  // A function with the signature `last_completed_migration()`, returning a uint, is required.\r\n  uint public last_completed_migration;\r\n\r\n  constructor() public {\r\n      // owner = msg.sender;\r\n  }\r\n\r\n  event PostEvent(address originAddress, string data);\r\n\r\n  // A function with the signature `setCompleted(uint)` is required.\r\n  function postEvent(address _from, string memory value) public {\r\n    data = value;\r\n    emit PostEvent(_from, value);\r\n  }\r\n}",
  "sourcePath": "C:\\Users\\Chris\\Desktop\\crypto\\project-ng\\Blockchain\\contracts\\DMVService.sol",
  "compiler": {
    "name": "solc",
    "version": "0.8.7+commit.e28d00a7.Emscripten.clang"
  },
  "schemaVersion": "3.4.7",
  "updatedAt": "2022-04-19T01:16:40.551Z",
  "networkType": "ethereum",
  "devdoc": {
    "kind": "dev",
    "methods": {},
    "version": 1
  },
  "userdoc": {
    "kind": "user",
    "methods": {},
    "version": 1
  }
}